:100000000C9434000C94E1000C9451000C945100B9
:100010000C9451000C9451000C9451000C9451001C
:100020000C9451000C9451000C9451000C9451000C
:100030000C9451000C9451000C9451000C945100FC
:100040000C9451000C9451000C9451000C945100EC
:100050000C9451000C9451000C9451000C945100DC
:100060000C9451000C94510011241FBECFEFD8E026
:10007000DEBFCDBF11E0A0E0B1E0EEE5FAE002C0E6
:1000800005900D92A43DB107D9F721E0A4EDB1E0B0
:1000900001C01D92A53EB207E1F70E94C2010C9477
:1000A0002D050C9400009C013695279528273927AB
:1000B000A901569547955695479542275327CA015A
:1000C00074E0969587957A95E1F784279527817056
:1000D0009927089582E891E09F938F930E943D02B3
:1000E0008091D4018F5F8093D401E8988FEF9CE7D3
:1000F0000197F1F700C00000E09AE89A0F900F9086
:100100000895FF920F931F93CF93DF931F92CDB764
:10011000DEB7F82E1092D90103E011E0F092DD0174
:100120008091DD0190E069830E9453008093DE019D
:10013000E8989AB19C609AB95A988FE193E0019738
:10014000F1F700C000005B985A9A5298E09AE89A3A
:100150001093D60169818091D6018130E1F39AB183
:10016000937F9AB98091D8018823E1F31092D80146
:10017000015021F08091D9018A3F81F6662331F048
:100180008091D8018823E1F31092D8010F90DF917C
:10019000CF911F910F91FF9008958091D5018F5FAE
:1001A0008093D50160E070E08EEF90E00E948100C6
:1001B00085E891E09F938F930E943D020F900F90EE
:1001C00008951F920F920FB60F9211242F933F9311
:1001D0004F935F936F937F938F939F93AF93BF934F
:1001E000EF93FF938091D601813089F58091DA01F8
:1001F0008091DA01883068F48091DD012091DA0184
:1002000090E002C0959587952A95E2F780FF09C096
:100210000EC08091DA01883031F48091DE018823AC
:1002200031F05B9805C08091DA01893009F45B9A5E
:100230008091DA018A3030F48091DA018F5F809307
:10024000DA0168C01092DA011092D60163C089B158
:1002500083FB882780F99091DB019A3058F59091C3
:10026000DB01992391F09091DB01993070F420919A
:10027000DC013091DB013150032E01C0880F0A945C
:10028000EAF7282B2093DC010FC09091DB01992322
:1002900049F09091DB01993039F49091D701880FA2
:1002A000880F892B8093D7018091DB018F5F80932A
:1002B000DB0130C09091DB019A3060F19091D70161
:1002C000880F892B8093D7018091D70181FD05C0CC
:1002D0008091D7010E946A0019C08091DC0190E0F2
:1002E0000E9453002091D7012695269530E0821771
:1002F000930729F40E94CD001092D80107C0809185
:10030000DC018093D90181E08093D8011092DB0158
:100310001092DC01FF91EF91BF91AF919F918F916E
:100320007F916F915F914F913F912F910F900FBEF1
:100330000F901F9018951092C50083E38093C4001E
:10034000E0ECF0E080818D7F808386E08093C200C6
:1003500088E18093C1000895CF93C82F8A3019F4A3
:100360008DE00E94AC018091C00085FFFCCFC0935E
:10037000C600CF9108958091C00087FFFCCF809187
:10038000C6000895CF93DF9300D01F92CDB7DEB79C
:100390001B821A8219828AB1837F8AB9809169008F
:1003A000826080936900E89A0E949B018EE091E050
:1003B0009093E2018093E10180E091E09093E0016D
:1003C0008093DF0188E891E00E945102789461E017
:1003D0008FEF0E9481008091D9011F928F938DE948
:1003E00091E09F938F930E943D0260E080EF0E9416
:1003F000810060E082E00E9481000F900F900F90DA
:100400000F9002EC11E0E4E0FE2EEE24E3948091E4
:10041000D8018823E1F38091D901823579F48B8169
:1004200081110CC08A818F258A8360E08DEE0E9445
:1004300081008A8160E00E94810015C08091D9010D
:10044000803F89F09B818091D9011F929F931F92D9
:100450008F931F930F930E943D020F900F900F9068
:100460000F900F900F908091D901803F11F4EB8293
:1004700001C01B821092D801CACFA0E0B0E0E3E433
:10048000F2E00C940605FE01359661917191AF0181
:100490008091E1019091E2010E947E02E2E00C94E1
:1004A00022050F931F93CF93DF93E091E101F09129
:1004B000E201238121FF1BC0EC0100E010E08991E3
:1004C0006091E1017091E201DB011896ED91FC91E0
:1004D0001997882331F00995892B89F30FEF1FEFC6
:1004E000EECF8AE00995892B11F4C80102C08FEF85
:1004F0009FEFDF91CF911F910F910895ACE0B0E095
:10050000E4E8F2E00C94F6047C016B018A01FC0142
:1005100017821682838181FFBDC1CE0101964C01F5
:10052000F7019381F60193FD859193FF81916F010E
:10053000882309F4ABC1853239F493FD859193FF8B
:1005400081916F01853229F4B70190E00E94660421
:10055000E7CF512C312C20E02032A0F48B3269F00F
:1005600030F4803259F0833269F420612CC08D322E
:1005700039F0803339F4216026C02260246023C022
:10058000286021C027FD27C030ED380F3A3078F4BD
:1005900026FF06C0FAE05F9E300D1124532E13C0D3
:1005A0008AE0389E300D1124332E20620CC08E322A
:1005B00021F426FD6BC1206406C08C3611F420683E
:1005C00002C0883641F4F60193FD859193FF819135
:1005D0006F018111C1CF982F9F7D9554933028F4DE
:1005E0000C5F1F4FFFE3F9830DC0833631F0833773
:1005F00071F0833509F05BC022C0F80180818983E6
:100600000E5F1F4F44244394512C540115C03801F0
:10061000F2E06F0E711CF801A080B18026FF03C0CC
:10062000652D70E002C06FEF7FEFC5012C870E943F
:100630005B042C0183012C852F77222E17C03801F3
:10064000F2E06F0E711CF801A080B18026FF03C09C
:10065000652D70E002C06FEF7FEFC5012C870E940F
:1006600050042C012C852068222E830123FC1BC002
:10067000832D90E048165906B0F4B70180E290E06F
:100680000E9466043A94F4CFF50127FC859127FE79
:1006900081915F01B70190E00E94660431103A94A5
:1006A000F1E04F1A51084114510471F7E5C0843646
:1006B00011F0893639F5F80127FF07C06081718193
:1006C000828193810C5F1F4F08C0608171818827F0
:1006D00077FD8095982F0E5F1F4F2F76B22E97FFD4
:1006E00009C090958095709561957F4F8F4F9F4F72
:1006F0002068B22E2AE030E0A4010E949804A82EBF
:10070000A81844C0853729F42F7EB22E2AE030E0A5
:1007100025C0F22FF97FBF2E8F36C1F018F488352F
:1007200079F0B4C0803719F0883721F0AFC02F2F8F
:100730002061B22EB4FE0DC08B2D8460B82E09C08E
:1007400024FF0AC09F2F9660B92E06C028E030E033
:1007500005C020E130E002C020E132E0F801B7FE40
:1007600007C060817181828193810C5F1F4F06C039
:100770006081718180E090E00E5F1F4FA4010E94B4
:100780009804A82EA818FB2DFF77BF2EB6FE0BC02D
:100790002B2D2E7FA51450F4B4FE0AC0B2FC08C065
:1007A0002B2D2E7E05C07A2C2B2D03C07A2C01C058
:1007B000752C24FF0DC0FE01EA0DF11D80818033F0
:1007C00011F4297E09C022FF06C07394739404C0FB
:1007D000822F867809F0739423FD13C020FF06C092
:1007E0005A2C731418F4530C5718732C731468F4A0
:1007F000B70180E290E02C870E94660473942C85F8
:10080000F5CF731410F4371801C0312C24FF12C037
:10081000B70180E390E02C870E9466042C8522FFBC
:1008200017C021FF03C088E590E002C088E790E090
:10083000B7010CC0822F867859F021FD02C080E2FA
:1008400001C08BE227FD8DE2B70190E00E946604B3
:10085000A51438F4B70180E390E00E9466045A942E
:10086000F7CFAA94F401EA0DF11D8081B70190E061
:100870000E946604A110F5CF332009F451CEB701D0
:1008800080E290E00E9466043A94F6CFF7018681F8
:10089000978102C08FEF9FEF2C96E2E10C94120536
:1008A000FC010590615070400110D8F7809590953B
:1008B0008E0F9F1F0895FC01615070400190011040
:1008C000D8F7809590958E0F9F1F08950F931F93D3
:1008D000CF93DF93182F092FEB018B8181FD03C08C
:1008E0008FEF9FEF20C082FF10C04E815F812C816F
:1008F0003D81421753077CF4E881F9819F012F5F06
:100900003F4F39832883108306C0E885F985812FFE
:100910000995892B29F72E813F812F5F3F4F3F8318
:100920002E83812F902FDF91CF911F910F910895EA
:10093000FA01AA27283051F1203181F1E8946F9310
:100940006E7F6E5F7F4F8F4F9F4FAF4FB1E03ED0B6
:10095000B4E03CD0670F781F891F9A1FA11D680F54
:10096000791F8A1F911DA11D6A0F711D811D911D87
:10097000A11D20D009F468943F912AE0269F1124FC
:100980003019305D3193DEF6CF010895462F477060
:10099000405D4193B3E00FD0C9F7F6CF462F4F70BB
:1009A000405D4A3318F0495D31FD4052419302D019
:1009B000A9F7EACFB4E0A6959795879577956795BF
:1009C000BA95C9F700976105710508959B01AC01BF
:1009D0000A2E06945795479537952795BA95C9F7E6
:1009E000620F731F841F951FA01D08952F923F92C1
:1009F0004F925F926F927F928F929F92AF92BF922F
:100A0000CF92DF92EF92FF920F931F93CF93DF93DA
:100A1000CDB7DEB7CA1BDB0B0FB6F894DEBF0FBE37
:100A2000CDBF09942A88398848885F846E847D8484
:100A30008C849B84AA84B984C884DF80EE80FD8086
:100A40000C811B81AA81B981CE0FD11D0FB6F894FC
:0E0A5000DEBF0FBECDBFED010895F894FFCFBD
:100A5E0000000001000000000000BB0100000000CB
:100A6E00000200000000AC010000000000000000C9
:100A7E000000000000000000000060000000000008
:100A8E0000713100007A736177320000637864651B
:100A9E003433000020766674723500006E6268672B
:100AAE0079360000006D6A75373800002C6B696F5F
:100ABE00303900002E2F6C3B702D00000027005B9C
:100ACE003D00000000005D005C0000000000000022
:100ADE00000021460021500053746172747570201D
:100AEE00436F6D706C657465642E200D004B6579D7
:100AFE00626F6172642053656C662D746573742029
:100B0E00636F6D706C657465643A20307825780D6E
:100B1E000A005363616E636F64653A202578202561
:040B2E00780D0A0034
:00000001FF
